:100000000C94E6000C9407010C9407010C94070172
:100010000C9407010C9407010C9407010C94070140
:100020000C9407010C9407010C9407010C94070130
:100030000C9407010C9407010C9407010C94070120
:100040000C9407010C9407010C9407010C94070110
:100050000C9407010C9407010C9407010C94070100
:100060000C9407010C9407010C9407010C940701F0
:100070000C9407010C9407010C9407010C940701E0
:100080000C9407010C9407010C9407010C940701D0
:100090000C9407010C9407010C9407010C940701C0
:1000A0000C9407010C9407010C9407010C940701B0
:1000B0000C9407010C9407010C9407010C940701A0
:1000C0000C9407010C9407010C9407010C94070190
:1000D0000C9407010C9407010C9407010C94070180
:1000E0000C9407010C9407010C9407010C94070170
:1000F0000C9407010C9407010C9407010C94070160
:100100000C9407010C9407010C9407010C9407014F
:100110000C9407010C9407010C9407010C9407013F
:100120000C9407010C9407010C9407010C9407012F
:100130000C9407010C9407010C9407010C9407011F
:100140000C9407010C9407010C9407010C9407010F
:100150000C9407010C9407010C9407010C940701FF
:100160000C9407010C9407010C9407010C940701EF
:100170000C9407010C9407010C9407010C940701DF
:100180000C9407010C9407010C9407010C940701CF
:100190000C9407010C9407010C9407010C940701BF
:1001A0000C9407010C9407010C9407010C940701AF
:1001B0000C9407010C9407010C9407010C9407019F
:1001C0000C9407010C9407010C943D0211241FBEEE
:1001D000CFEFCDBFDFE3DEBF00E00CBF10E2A0E059
:1001E000B0E2E8EBFEE000E00BBF02C007900D922A
:1001F000AE34B107D9F720E2AEE4B0E201C01D92FF
:10020000A238B207E1F70E945C040C945A070C94E0
:100210000000CF93DF93EC018991882319F00E94AD
:10022000AD03FACFDF91CF910895CF93DF93CDB790
:10023000DEB7C854D109CDBFDEBF00E010E099247D
:1002400093948AE1C82E80E2D82ECE0101967C01DB
:100250000E94A603909205069092060680E190E225
:100260000E94090129961EAE1FAE2997412C512CE0
:10027000320129968EAD9FAD29970697B8F527963E
:100280001EAE1FAE279727968EAD9FAD2797069778
:1002900018F529968EAD9FAD299725968EAF9FAF05
:1002A000259729968EAD9FAD299723968EAF9FAF48
:1002B00023979FEF491A590A690A790A88E190E25F
:1002C0000E94090127968EAD9FAD2797019627962C
:1002D0008EAF9FAF2797D7CF29968EAD9FAD299729
:1002E000019629968EAF9FAF2997C3CF58018FEF04
:1002F000A81AB80A27962EAD3FAD279729968EAD3E
:100300009FAD29971F930F933F932F939F938F93A5
:100310007F926F925F924F92DF92CF92FF92EF9215
:100320000E947D04C7010E940901CDBFDEBF850187
:100330008FCFCF93DF931F92CDB7DEB780E280934C
:10034000060680E480930506198281E40E94AD03CD
:1003500081E0809305068093060689818230E9F763
:1003600010E41093060610930606109306061093E9
:1003700006061093060610930606109306061093C1
:1003800006061093060688E290E20E940901109387
:1003900006061093060610930606109306061093A1
:1003A0000606109306061093060610930606FFCF66
:1003B00082E40E94AD030E94A60391E0909305069B
:1003C00090930606813711F081E301C082E30E9419
:1003D000AD038AE00E94AD038AE00E94AD038AE08B
:1003E0000E94AD038AE00C94AD031F93CF93DF937B
:1003F000CDB7DEB76697CDBFDEBF8DE290E20E943B
:10040000090110E081E48A3069F0103158F40E944B
:10041000A603E1E0F0E0EC0FFD1FE10FF11D80838A
:100420001F5FF1CF86E0E8E4F0E2DE015196019033
:100430000D928A95E1F781E0809305068093060688
:10044000FE013196DE0151969E012A5F3F4F419198
:100450009D91491380E0E217F307C9F7811103C0AA
:1004600087E390E202C08FE390E26696CDBFDEBFE5
:10047000DF91CF911F910C94090180E00895DB0179
:10048000FA019F01241B350B28173907D4F52C914D
:1004900011963C91119760ED630F6A3010F4608300
:1004A0000FC06FEB630F663010F4375308C06FE96D
:1004B000630F663018F081E090E00895375530837F
:1004C00030ED320F3A3018F42295207F14C03FEB04
:1004D000320F363020F430E02753310907C03FE9AE
:1004E000320F363040F730E02755310964E0220FF3
:1004F000331F6A95E1F73081232B208331961296C2
:10050000C0CF80E090E0089520914E2030914F20A0
:100510002A303105CCF460347105B0F495E0929F37
:10052000F001939FF00D1124E05BFF4D8083618308
:100530007283438354832F5F3F4F20934E20309329
:100540004F2080E090E0089581E090E008954DE331
:1005500052E060E070E086E70C948402CF92DF9274
:10056000EF92FF920F931F93CF93DF938B01EA01DA
:100570000E94AD037E01C7018C1B9D0B8017910764
:10058000B4F46701D701ED917D01E295EF70F0E0E1
:10059000E050F04E80810E94AD03D601EC91EF70E7
:1005A000F0E0E050F04E80810E94AD03E4CF8AE09D
:1005B000DF91CF911F910F91FF90EF90DF90CF903F
:1005C0000C94AD03AF92BF92CF92DF92EF92FF9265
:1005D0000F931F93CF93DF93CDB7DEB7C15CD109E3
:1005E000CDBFDEBF0E94A60340914E2050914F2008
:1005F00020E530E200E010E00417150754F42B5F0B
:100600003F4FF90135979081891739F00F5F1F4FE0
:10061000F3CF0417150709F454C09E012F5F3F4F15
:100620007901690125E0209FC001219F900D1124CF
:10063000DC01AF5ABF4D5D01D5018D919C91880FB2
:10064000991F96012E193F092817390750F40E9467
:10065000A6038A30B1F18D30A1F1F60181936F01CB
:10066000EBCF0E94A6038A3011F08D3051F525E0C2
:10067000209FC001219F900D11248C01005B1F4D14
:10068000AE014F575F4FB701F801818192810E94FF
:100690003F02892BB1F4D8011396ED91FC91149788
:1006A000CE018F579F4F1995CF53DF4F8883C15C81
:1006B000D040AE014F535F4F61E070E08AE70E9487
:1006C000AE02CF53DF4FCDBFDEBFDF91CF911F9181
:1006D0000F91FF90EF90DF90CF90BF90AF90089573
:1006E000E0E4F6E088E0818384E08283E0EAF8E0F9
:1006F00083E085838BE08683178284818061848395
:100700008481886084830895CF93DF931F921F9222
:10071000CDB7DEB769837A8320E030E049815A8122
:100720002417350769F04091A10847FF06C02091C2
:10073000A008FC01208381E004C02F5F3F4FEECF73
:1007400080E00F900F90DF91CF9108958091A108E4
:1007500087FFFCCF8091A00808959091A10895FF94
:10076000FCCF8093A0080895FC01608371834283CD
:1007700014861386168615860895FC0162830895F3
:10078000FC01958526859F5F937081E0921301C0DF
:1007900080E008951F93CF93DF93EC01162F0E9402
:1007A000C003882379F09D85FE01E90FF11D1783B1
:1007B0009F5F93709D87E881F98193819C7F2A8157
:1007C000922B9383DF91CF911F910895FC01238594
:1007D000948581E0291301C080E00895FC0184859F
:1007E000DF01A80FB11D13968C9194859F5F9370C4
:1007F00094870895FC0183858F5F83702485A08191
:10080000B1819C91821749F02385DF01A20FB11DB0
:1008100013969C93838781E0089580E00895CF9399
:10082000DF93FC0196858585A081B181981307C06F
:1008300013968C9113978C7F13968C930AC08685A0
:10084000EF01C80FD11D8F818C9386858F5F8370D8
:100850008687DF91CF910895FC01848170FF02C0EB
:10086000816001C08E7F848360830895FC01848150
:1008700080FF04C0808190E091600895808190E0C5
:100880000895109252001092550080915000886097
:10089000809350008091510083FFFCCF88ED84BF8E
:1008A00083E08093400088E08093500080E680934E
:1008B00001068093050608950E9441040E9470037A
:1008C00081E08093010688E60E94AD0385E60E94E0
:1008D000AD038CE60E94AD038CE60E94AD038FE66B
:1008E0000E94AD038AE00E94AD038FEF9FE801975D
:1008F000F1F700C000000E9415010F931F93CF93E2
:10090000DF93CDB7DEB72E97CDBFDEBF0E891F892F
:1009100086E08C8309831A838FEF9FE78D839E8304
:10092000AE01465E5F4F688D798DCE0101960E94C3
:10093000A604EF81F885E00FF11F10822E96CDBF3F
:10094000DEBFDF91CF911F910F9108952F923F92BB
:100950004F925F926F927F928F929F92AF92BF92CF
:10096000CF92DF92EF92FF920F931F93CF93DF937B
:10097000CDB7DEB72B97CDBFDEBF6C017B018A01FF
:10098000FC0116821782838181FFCCC1CE010196C2
:100990003C01F6019381F70193FD859193FF8191CD
:1009A0007F01882309F4BAC1853239F493FD85911A
:1009B00093FF81917F01853229F4B60190E00E9476
:1009C000C006E7CF912C212C312CFFE1F315D8F094
:1009D0008B3279F038F4803279F08332A1F4232D10
:1009E00020611DC08D3261F0803369F4232D2160B8
:1009F00016C0832D8260382EE32DE4603E2E2AC07F
:100A0000F32DF8601DC037FC2DC020ED280F2A30D3
:100A100040F08E32B9F436FC81C1232D2064322E91
:100A200019C036FE06C08AE0989E200D1124922E31
:100A300011C0EAE02E9E200D1124222EF32DF0622B
:100A40003F2E08C08C3621F4832D8068382E02C0DA
:100A5000883641F4F70193FD859193FF81917F01E1
:100A60008111B3CF982F9F7D9554933028F40C5F5C
:100A70001F4F9FE399830DC0833631F0833771F0A8
:100A8000833509F059C021C0F801808189830E5F48
:100A90001F4F88248394912C530113C02801F2E046
:100AA0004F0E511CF801A080B18036FE03C0692DA5
:100AB00070E002C06FEF7FEFC5010E94B5064C01E8
:100AC0008201F32DFF773F2E16C0280122E0420E4F
:100AD000511CF801A080B18036FE03C0692D70E082
:100AE00002C06FEF7FEFC5010E94AA064C01F32DF3
:100AF000F0683F2E820133FC1BC0822D90E08816E7
:100B00009906B0F4B60180E290E00E94C0062A94F3
:100B1000F4CFF50137FC859137FE81915F01B60175
:100B200090E00E94C00621102A9421E0821A9108C8
:100B30008114910471F7E8C0843611F0893641F5CB
:100B4000F80137FE07C060817181828193810C5F5B
:100B50001F4F08C060817181072E000C880B990B14
:100B60000E5F1F4FF32DFF763F2E97FF09C0909524
:100B70008095709561957F4F8F4F9F4FF0683F2E06
:100B80002AE030E0A3010E94FC06882E861845C0AA
:100B9000853731F4232D2F7EB22E2AE030E025C098
:100BA000932D997FB92E8F36C1F018F4883579F0DE
:100BB000B5C0803719F0883721F0B0C0E92FE06167
:100BC000BE2EB4FE0DC0FB2DF460BF2E09C034FE56
:100BD0000AC0292F2660B22E06C028E030E005C0EA
:100BE00020E130E002C020E132E0F801B7FE07C0AA
:100BF00060817181828193810C5F1F4F06C060818B
:100C0000718180E090E00E5F1F4FA3010E94FC06FF
:100C1000882E8618FB2DFF773F2E36FE0DC0232D24
:100C20002E7FA22E891458F434FE0BC032FC09C06A
:100C3000832D8E7EA82E05C0B82CA32C03C0B82C03
:100C400001C0B92CA4FE0FC0FE01E80DF11D80818A
:100C5000803321F49A2D997EA92E09C0A2FE06C0E8
:100C6000B394B39404C08A2D867809F0B394A3FC9E
:100C700011C0A0FE06C0B21488F4280C922C9B1858
:100C80000EC0B21460F4B60180E290E00E94C0068B
:100C9000B394F7CFB21418F42B1802C0982C212C5F
:100CA000A4FE10C0B60180E390E00E94C006A2FE40
:100CB00017C0A1FC03C088E790E002C088E590E07F
:100CC000B6010CC08A2D867859F0A1FE02C08BE2D5
:100CD00001C080E2A7FC8DE2B60190E00E94C00650
:100CE000891438F4B60180E390E00E94C0069A941B
:100CF000F7CF8A94F301E80DF11D8081B60190E0F1
:100D00000E94C0068110F5CF222009F442CEB60120
:100D100080E290E00E94C0062A94F6CFF601868118
:100D2000978102C08FEF9FEF2B96CDBFDEBFDF9183
:100D3000CF911F910F91FF90EF90DF90CF90BF90D8
:100D4000AF909F908F907F906F905F904F903F906B
:100D50002F900895FC010590615070400110D8F764
:100D6000809590958E0F9F1F0895FC0161507040F3
:100D700001900110D8F7809590958E0F9F1F0895D0
:100D80000F931F93CF93DF93FB01238121FD03C0BA
:100D90008FEF9FEF2CC022FF16C046815781248120
:100DA00035814217530744F4A081B1819D012F5F23
:100DB0003F4F208331838C93268137812F5F3F4FB4
:100DC0002683378314C08B01EC01FB010084F1857D
:100DD000E02D1995892BE1F6D80116968D919C91FD
:100DE0001797019616968D939C931797CE01DF91D6
:100DF000CF911F910F910895FA01AA27283051F140
:100E0000203181F1E8946F936E7F6E5F7F4F8F4F3B
:100E10009F4FAF4FB1E03ED0B4E03CD0670F781F9A
:100E2000891F9A1FA11D680F791F8A1F911DA11D7F
:100E30006A0F711D811D911DA11D20D009F46894B8
:100E40003F912AE0269F11243019305D3193DEF660
:100E5000CF010895462F4770405D4193B3E00FD016
:100E6000C9F7F6CF462F4F70405D4A3318F0495D01
:100E700031FD4052419302D0A9F7EACFB4E0A695E4
:100E80009795879577956795BA95C9F70097610506
:100E9000710508959B01AC010A2E0694579547955C
:100EA00037952795BA95C9F7620F731F841F951F51
:080EB000A01D0895F894FFCF86
:100EB8003031323334353637383941424344454688
:100EC8006C6F6C6F6C6F6C005800256C7520256416
:100ED8002025642025640A003132333400506173C0
:100EE80073776F72643A0044656E6965640A0057E7
:0E0EF800656C636F6D650A00746F756368004A
:00000001FF
